S01300004170706C69636174696F6E2E737265639D
S214012000A077002045A102003DA202003DA20200E9
S21401201000000000000000000000000000000000BA
S214012020000000000000000000000000A192010076
S2140120300000000000000000C193010009940100A7
S2140120403DA202003DA202003DA2020095620200EE
S214012050C15702003DA20200612401003DA2020018
S214012060A52501003969020051690200696902006B
S2140120708169020099690200B16902008DA002001F
S214012080A1A00200B5A002008D6F0100A16F0100A2
S214012090B56F01000000000000000000E922010009
S2140120A03DA20200252401003DA202003DA202003D
S2140120B00000000010B5064C2378002B07D1054B15
S2140120C0002B02D0044800E000BF0123237010BD9E
S2140120D0D002002000000000489E0300084B10B507
S2140120E0002B03D00749084800E000BF07480368F3
S2140120F0002B00D110BD064B002BFBD09847F9E70B
S21401210000000000D4020020489E0300489E030001
S2140121100000000080B584B000AF78607B681B6863
S214012120FB60FB685B7EDBB25BB2002B01DA01234E
S21401213000E000231800BD4604B080BD80B584B021
S21401214000AF78607B681B68FB60C0467B68180040
S2140121500B4B9847031EF9D1FB681B7BDBB20222AF
S2140121601343DAB2FB681A73C0467B681800044B47
S2140121709847031EF9D1C046BD4604B080BDC0468F
S2140121801521010080B584B000AF78600A00FB1C01
S2140121901A707B681B68FB60FB68FA1C12789A75DC
S2140121A0C046BD4604B080BD80B584B000AF020015
S2140121B0FB1D1A70FB1D1A78474B9200D358FB6023
S2140121C0FB681B681B7EDAB2FB681B68DB7DDBB233
S2140121D01340DBB2BB60BB680122134045D0FB68ED
S2140121E01B6801221A76C046FB6818003B4B9847CD
S2140121F0031EF9D1FB685B69991CFA685161FA689C
S2140122001268528B92B21A80FB681B8B9BB2013B01
S2140122109BB2FA68191C1183002B08D0FB685B7F00
S214012220002B22D0FB6818002D4B98471DE0FB6859
S214012230012118002B4B9847FB681B7FDBB2052B4F
S21401224013D1FB6800221A77FB68DB7E1A00012394
S21401225013400AD0FB689B7E1A000123134004D06A
S214012260FB689B68FA6810009847BB680422134015
S21401227014D0FB681B6804221A76FB68DB7E1A0002
S214012280022313400AD0FB689B7E1A0002231340E8
S21401229004D0FB68DB68FA6810009847BB68022226
S2140122A0134014D0FB681B6802221A76FB68DB7E9B
S2140122B01A00042313400AD0FB689B7E1A000423ED
S2140122C0134004D0FB681B69FA6810009847C046A3
S2140122D0BD4604B080BDC0468441002015210100E2
S2140122E03D2101008521010080B500AF0020024B91
S2140122F09847C046BD4680BDA921010080B582B081
S21401230000AF0200FB1D1A70074AFB1D1B7819005F
S2140123101F230B40012199400B0019008023D15047
S214012320C046BD4602B080BD00E100E080B584B085
S21401233000AF0200FB1D1A70FB1D1A78374B920086
S214012340D358FB60FB681B68BB60BB689B79DBB23C
S2140123501A00012313400ED0BB6801229A71FB6854
S2140123601433002B07D0FB685B7C002B03D0FB6883
S2140123709B6900209847BB689B79DBB21A00022351
S214012380134047D0BB6802229A71FB689B899BB2B7
S214012390002B33D0FB689A68FB68DB899BB2591C1B
S2140123A088B2F968C8815B00D3181B889AB2BB68EB
S2140123B09A81FB689B899BB2013B9AB2FB689A8122
S2140123C0FB689B899BB2002B18D1FB682022002159
S2140123D09954BB6802221A71BB6802229A711920AD
S2140123E00F4B9847FB681433002B07D0FB689B7C88
S2140123F0002B03D0FB68DB6900209847FB68143389
S214012400002B07D0FB681B7C002B03D0FB685B69A5
S21401241000209847C046BD4604B080BD88410020D4
S214012420FD22010080B500AF0020024B9847C04650
S214012430BD4680BD2D23010080B500AF024B9847F5
S214012440C046BD4680BDC0461154020080B500AFEF
S214012450024B9847C046BD4680BDC0466554020043
S21401246080B586B000AF494B9847494B1B8C9BB251
S214012470DAB21723FB180F210A401A701723FB182C
S2140124801A78444B9200D3583B61414A3B691B780A
S2140124900F210B40D9B23F23D1543D490F23FB18DE
S2140124A04E228A5C1A703B691B783B4A1B01D31883
S2140124B002331B889BB2BB603B691B78374A1B0102
S2140124C0D31802331B889BB27B60BA687B68D21A2A
S2140124D03B695A610F23FB181B780122134016D063
S2140124E02B4A4E230121D1543B6910225A743B6971
S2140124F01B7C1A000123134042D03B695B68002B0A
S2140125003ED03B695B683A691000984738E00F2374
S214012510FB181B780222134016D01D4A4E230221B7
S214012520D1543B6900225A743B691B7C1A00022372
S214012530134025D03B699B68002B21D03B699B68E3
S2140125403A69100098471BE00F23FB181B780422FA
S214012550134015D00E4A4E230421D1543B6906225E
S2140125605A743B691B7C1A000423134008D03B694C
S214012570DB68002B04D03B69DB683A69100098479A
S214012580074B9847C046BD4606B080BD39240100BA
S214012590004800414003002090410020F002002046
S2140125A04D24010080B582B000AF154B1B697B60DE
S2140125B0144B9B693B60124B9A683B681A43104B5D
S2140125C09A60104B104A9A6108E07B685A687B68EB
S2140125D01B68180090477B689B687B607B68002BB4
S2140125E0F3D1074BDB683B60054B9B683A68D243E7
S2140125F01A40034B9A60C046BD4602B080BDC04635
S2140126000000002000040042FFFF0F0F80B582B0DB
S21401261000AF02003960FB1D1A70FB1D1B78012BF1
S2140126200AD0022B0FD0002B14D10E4B0D4A916904
S2140126303A680A439A610FE00A4B0A4AD1693A6836
S2140126400A43DA6108E0074B064A116A3A680A4308
S2140126501A6201E0172300E000231800BD4602B00D
S21401266080BDC0460004004080B500AF02210220B4
S214012670074B9847074B01221A70C046054B1B783B
S214012680DBB21A0001231340F8D1C046BD4680BD17
S2140126900D2601000004004280B584B000AF7860CA
S2140126A07B681B68FB60FB68DB69072213405A1EC8
S2140126B09341DBB21800BD4604B080BD80B582B040
S2140126C000AF7860C0467B681800044B9847031E2D
S2140126D0F9D1C046BD4602B080BDC046992601006C
S2140126E080B584B000AF78607B681B68FB60FB68D0
S2140126F01B681B01DB0FDBB21A000B23FB18511EF4
S2140127008A411A700823FB187A68528B1A807B68F4
S2140127109B8B9AB20823FB180821791809888A1A14
S2140127201A807B689B8B9BB2013B9AB27B689A832B
S2140127300B23FB181B78002B10D07B68DB7A002B51
S2140127401CD07B689B8B9BB2012B17D1FB685B6807
S2140127508022D2021A43FB685A600FE07B68DB7A5C
S214012760002B0BD07B689B8B9BB2002B06D1FB68A2
S2140127705B688022D2021A43FB685A607B689B8B97
S2140127809BB2002B0ED17B689B7A002B0AD07B680C
S21401279018000E4B9847FB685B68C02292021A43EA
S2140127A0FB685A607B681800084B98477B681A6A72
S2140127B00823FB181B88D318FA682821525CD2B26A
S2140127C01A70C046BD4604B080BDC046BD26010095
S2140127D080B584B000AF78607B681B68FB60FB68DF
S2140127E05B8B9BB21A000423134004D07B6825221E
S2140127F01E21995424E00A23FB187A68528B1A800A
S2140128007B689B8B9AB20A23FB180A2179180988E0
S2140128108A1A1A807B689B8B9BB2013B9AB27B68B3
S2140128209A837B681800084B98477B681A6A0A23C4
S214012830FB181B88D3181B78D9B2FB682822995439
S214012840BD4604B080BDC046BD26010080B584B03B
S21401285000AF78607B681B68FB60FB681B7EDBB2A1
S2140128601A00012313402BD0FB6801221A76FB685D
S2140128705B8B9BB21A000223134004D07B6825228F
S214012880412199541CE0FB685B8B9BB21A00042320
S214012890134015D07B682522182199547B680022A5
S2140128A09A837B689B7A002B0AD07B681800134BAF
S2140128B09847FB685B68C02292021A43FB685A601D
S2140128C07B689B8B9AB27B685A837B6825229B5CCC
S2140128D0DBB2052B0ED17B6824229B5CDBB2002B7E
S2140128E004D17B681800064B984703E07B68180004
S2140128F0044B9847C046BD4604B080BDBD260100C6
S214012900D1270100E126010080B584B000AFF86050
S214012910B960FB1D1A70FB1D1B78FA6802339B0019
S214012920D3180433BA681A60FB681B7EDBB25AB24E
S214012930FB1D1B78012199400B005BB213435BB270
S214012940DAB2FB681A76C046BD4604B080BD000008
S21401295090B587B000AF786039607B681B683B61D3
S2140129603B685A687B681A623B685A887B689A8318
S2140129707B682422012199547B68252205219954DC
S2140129803B691B681B01DB0FDBB21A000F23FB1828
S214012990511E8A411A703B685B7A002B06D03B6851
S2140129A09A7A7B68110018003B4B98470F23FB1857
S2140129B01B78002B0BD03B685B88012B07D13B694A
S2140129C05B688022D2021A433B695A6005E03B6984
S2140129D05B68324A1A403B695A603B681B7A002B97
S2140129E045D03B681B885A003B685B7A9B031343C0
S2140129F01A0080231B021A433B695A621723FC18EC
S214012A007B681800264B9847030023703B695B6878
S214012A10224A1A403B695A601723FB181B78002B81
S214012A2007D11723FC187B6818001E4B9847030034
S214012A3023701723FB181B78002B14D13B69032244
S214012A409A753B681B881B0A9BB2782213439BB27C
S214012A505A003B685B7A9B031343012213431A0017
S214012A603B695A6212E01723FB181B780FE03B699B
S214012A7003229A753B681B885B0001221A433B6858
S214012A805B7A9B0313431A003B695A6200231800C2
S214012A90BD4607B090BDC046396F0100FFFFFBFF82
S214012AA0DB6E01007D6E010080B582B000AF7860FC
S214012AB039607B689B8B9BB2002B01D005230CE011
S214012AC07B6801229A727B680122DA723A687B6817
S214012AD011001800034B984703001800BD4602B0CA
S214012AE080BDC0465129010080B584B000AF786032
S214012AF039607B681B68FB603B685B7A002B06D0FD
S214012B003B689A7A7B68110018001E4B9847FB6851
S214012B105B681D4A1A40FB685A603B685A687B68C6
S214012B201A623B685A887B689A837B682422002154
S214012B3099547B68252205219954FB6803229A75CE
S214012B403B681B7A002B0DD03B681B885A003B68FC
S214012B505B7A9B0313431A0080231B021A43FB680C
S214012B605A6209E03B681B885A003B685B7A9B0304
S214012B7013431A00FB685A6200231800BD4604B0CE
S214012B8080BDC046396F0100FFFFFBFF80B582B0F4
S214012B9000AF786039607B689B8B9BB2002B01D0BD
S214012BA005230CE07B6801229A727B680122DA72A7
S214012BB03A687B6811001800034B98470300180019
S214012BC0BD4602B080BDC046E92A010080B586B088
S214012BD000AF0200FB1D1A70FB1D1A78934B920082
S214012BE0D3587B617B691B683B613B691B681B0192
S214012BF0DB0FDBB21A000F23FB18511E8A411A7035
S214012C000E23FB187A69527E1A707B691B7EDAB234
S214012C100E23FB180E21791809780A401A707B6971
S214012C205B8B9BB2002B09D17B699B8B9BB2002BE4
S214012C3004D07B6918007E4B984770E07B695B8BFC
S214012C409BB2002B39D07B699B8B9BB2002B34D176
S214012C507B6925229B5CDBB2052B2ED17B69242266
S214012C609B5CDBB2002B28D13B6903221A757B697A
S214012C7000225A837B692522002199547B699B7A1D
S214012C80002B0BD07B6918006A4B98473B695B6841
S214012C90C02292021A433B695A6002E03B69012254
S214012CA01A760E23FB181B780122134037D07B6956
S214012CB0DB687A691000984731E07B695B8B9BB2D1
S214012CC0002B2CD07B699B8B9BB2002B27D03B69BA
S214012CD05B8B9BB21A002023134011D10F23FB18E4
S214012CE01B7801225340DBB2002B04D17B699B8BFE
S214012CF09BB2012B04D07B692522412199540EE019
S214012D007B6924229B5CDBB2002B04D17B69180013
S214012D10494B984703E07B691800484B98477B6905
S214012D205B8B9BB2002B47D07B699B8B9BB2002BA6
S214012D3042D17B6925229B5CDBB2052B3CD17B69AA
S214012D4024229B5CDBB2012B36D13B691B7EDBB2B6
S214012D501A000223134002D03B6902221A763B690D
S214012D6003221A757B6900225A837B69252200217A
S214012D7099540E23FB181B78022213400BD07B6953
S214012D8024229B5CDBB2012B05D17B691B697A6926
S214012D901000984710E00E23FB181B780122134001
S214012DA00AD07B6924229B5CDBB2002B04D17B69B1
S214012DB0DB687A69100098477B6925229B5CDBB249
S214012DC0052B2ED07B6925229B5CDBB2002B28D0FD
S214012DD03B6903221A757B6900225A837B690022AC
S214012DE09A837B6925229B5CDBB2412B0ED07B69E3
S214012DF09B7A002B0AD07B6918000E4B98473B69DB
S214012E005B68E022D2021A433B695A600E23FB1824
S214012E101B780422134004D07B695B697A69100031
S214012E209847C046BD4606B080BDC0461456002031
S214012E304D280100BD260100D1270100E126010031
S214012E4080B584B000AF0200FB1D1A700F23FB187B
S214012E50FA1D1278D2091A700E23FB18FA1D127881
S214012E6052091A700D4BBB600F23FB181B78002B01
S214012E700FD10F23FB181B789B0010229446BC44ED
S214012E806344083B1A680E23FB181B78DB01D31832
S214012E9000E000231800BD4604B080BD0044004198
S214012EA080B582B000AF0200FB1D1A70FB1D1B78B7
S214012EB01800034B984703001800BD4602B080BDBA
S214012EC0412E010080B582B000AF78607B68002299
S214012ED01A707B6801225A707B6800229A70C0467D
S214012EE0BD4602B080BD000080B584B000AF0200D0
S214012EF0FB1D1A70FB1D1B7818000B4B984703002F
S214012F00FB60FB1D1B781F22134001229A40130011
S214012F10BB60FB681B6ABA6813405A1E9341DBB25A
S214012F201800BD4604B080BDA12E010080B582B058
S214012F3000AF3B1D1800084B98473B1D00221A7036
S214012F403B1D01225A703B1D19003720034B984741
S214012F50C046BD4602B080BDC52E0100255C0200FC
S214012F6080B500AF3720084B984703005A1E93419F
S214012F70DBB201225340DBB21A1C01231340DBB241
S214012F801800BD4680BDC046E92E010080B584B05C
S214012F9000AF0200FB1D1A700F23FB18FA1D1278F2
S214012FA0D2091A700E23FB18FA1D127852091A70EC
S214012FB00D4BBB600F23FB181B78002B0FD10F2383
S214012FC0FB181B789B0010229446BC446344083BC4
S214012FD01A680E23FB181B78DB01D31800E00023C8
S214012FE01800BD4604B080BD0044004180B582B0E3
S214012FF000AF0200FB1D1A70FB1D1B781800034B67
S214013000984703001800BD4602B080BD8D2F010011
S21401301080B582B000AF78607B6800221A707B684A
S21401302001225A707B6800229A70C046BD4602B0E3
S21401303080BD000080B584B000AF0200FB1D1A7091
S214013040BB1D0A1C1A70FB1D1B7818000D4B9847F8
S2140130500300FB60FB1D1B781F22134001229A40D0
S2140130601300BB60BB1D1B78002B03D0FB68BA683E
S2140130709A6102E0FB68BA685A61C046BD4604B070
S21401308080BDC046ED2F010080B582B000AF3B1D6C
S2140130901800104B98473B1D01221A703B1D190062
S2140130A00A200D4B984701210A200C4B98470C4BE0
S2140130B018000C4B984700210A20084B9847FA2322
S2140130C05B001800074B9847C0461800BD4602B083
S2140130D080BDC04611300100255C0200353001007C
S2140130E0204E000025F3010080B582B000AF3B0002
S2140130F01800194B98473B0001221A703B00190033
S2140131000A20164B984700237B601EE001210A2007
S214013110134B98476420134B984700210A20104B05
S214013120984764200F4B984701210A200C4B98477B
S214013130C8200C4B984700210A20094B9847C82005
S214013140084B98477B6801337B607B68092BDDDD84
S214013150C046BD4602B080BD11300100255C0200AC
S2140131603530010025F3010080B500AFBFF34F8F66
S214013170024B034ADA60BFF34F8FFEE700ED00E033
S2140131800400FA0580B500AF024B9847C046BD461D
S21401319080BDC0466931010080B586B000AF786059
S2140131A0A44B1800A44B9847A44B1800A24B984771
S2140131B0A34B1800A04B9847A24B18009E4B98476C
S2140131C0A14B18009C4B9847A04B18009A4B984768
S2140131D09F4B1800984B98479E4B1800964B984764
S2140131E09D4B1800944B98479C4B1800924B984760
S2140131F09B4B1800904B98479A4B18008E4B98475C
S2140132001723FB1800221A70974B1800974B984704
S214013210032200210120964B98470200954B1A6025
S214013220944B1B68002B07D1934B19000320934B3B
S21401323098470020924B98470C23FB181800914B97
S21401324098470C23FB181B780A2B04D00C23FB1879
S2140132501B780D2B37D18C4B1800844B98478B4B22
S21401326000221A708A4B00221A708A498A4B312230
S21401327018008A4B9847884B312200219954884977
S214013280844B64221800874B984703003B61844BAC
S214013290632200219954824B1800744B98473B696E
S2140132A0002BECD11723FB1800221A70794B32221F
S2140132B0002118007C4B9847794B642200211800A6
S2140132C0794B9847B5E0714B1B78002B59D0704B62
S2140132D01B78032B0CD86E4B1B785A1CD1B26C4A48
S2140132E011701A000C23FB181978704B995405E0DD
S2140132F0664B00221A70664B00221A70644B1B78CC
S214013300012B99D96A4A694B11001800694B9847F5
S214013310031E2FD068495F4B1B221800674B984746
S2140133205C4B1800514B98471723FB1800221A7064
S214013330584B3222002118005B4B98475649554B93
S21401334031221800554B9847524B18005C4B984752
S2140133500300302B06D8504B1800594B98470300F2
S214013360DAB200E031221723FB181A70494B180015
S2140133703E4B9847454B00221A70454B00221A7067
S2140133805AE70C23FB181B780D2B00D154E70C23AE
S214013390FB181B78082B04D00C23FB181B787F2BFB
S2140133A01CD10823FB18474A12681A600823FB1829
S2140133B018002E4B98471723FB181B78002B37D085
S2140133C01723FB181A781723FB18013A1A701723CC
S2140133D0FB181B782F4A0021D15429E00C23FB1837
S2140133E01B781B2B06D1294B01221A70284B002271
S2140133F01A7021E71723FB181B78312B0ED81723D9
S214013400FB181B780C22BA181178224AD1541723BC
S214013410FB181A781723FB1801321A700C23FB18B5
S21401342000225A700C23FB181800104B984703E72C
S214013430C04601E74C5B0300817001007C5B030022
S2140134405C5B03006C5B03008C5B03009C5B03000E
S214013450AC5B0300BC5B0300CC5B0300DC5B0300DE
S214013460EC5B0300FC5B030090570300A9CF01004F
S21401347049960100E4410020C059030059D00100DB
S21401348035B40100C9340100E0590300640300208B
S214013490650300209C030020680300209B4703006F
S2140134A0D0030020F1700100B34303003404002070
S2140134B0E4590300B5460300E859030071460300CA
S2140134C06B470300F059030080B582B000AF786007
S2140134D0084B1B680A211800074B98470300012B6D
S2140134E0F6D1064B1A787B681A70C046C046BD46B0
S2140134F002B080BDE441002001A6010094500020E6
S21401350080B500AF0A4B00221A600A4B1B68084AB6
S21401351011001800084B9847054B1B68002B03D079
S214013520064B802252051A60C046BD4680BDC04685
S21401353038040020E4410020799F010004ED00E0FA
S21401354090B587B000AFF860B9607A601723FB18B2
S2140135501B221A701723FB181B78084A08480F21EC
S214013560084CA047064AB968FB681800054B9847FF
S21401357000231800BD4607B090BDC046F4590300AD
S214013580540300200D46030090B593B000AFF860D9
S214013590B9607A603423FB18194A13CA13C3126838
S2140135A01A603423FB181800164B98473423FB186F
S2140135B030221A704723FC183423F9181023FB18FD
S2140135C00A221800104B9847030023704723FB1864
S2140135D01B78002B08D04723FB181A780B4B1900D1
S2140135E000200B4B984703E00A4B18000A4B9847FC
S2140135F002200A4B984700231800BD4613B090BD21
S214013600245A030035D90200F9CE0200FC59030002
S21401361059D001000C5A0300A9CF0100E966010048
S21401362080B584B000AFF860B9607A60034B984704
S21401363000231800BD4604B080BDC0468531010098
S21401364090B58FB000AFF860B9607A601823FB18A8
S21401365000221A701823FB1800225A701823FB1830
S21401366000221A701823FB1800225A701C23FB181C
S21401367000221A701C23FB181422BA189A601C2305
S214013680FB180122DA811C23FB181822BA185A608B
S2140136901C23FB1801229A812C4B18002C4B9847AF
S2140136A000237B6346E07B6B2A4A2B480F212B4C79
S2140136B0A047294B1800264B984700233B632FE071
S2140136C07B6BDAB23B6BDBB2D318DBB2DB18DAB258
S2140136D01C23FB181A701C23FB1864211800204BAE
S2140136E098470300FB62FB6A002B0CD11C23FB18D6
S2140136F01B78184A18480F21184CA047164B18007B
S214013700134B984709E0144B164A11881980927892
S2140137109A70114B18000E4B98473B6B01333B6375
S2140137203B6B0F2BCCDD104B1800094B98477B6B7E
S21401373010337B637B6B7F2BB5DD0B4B1800044B83
S214013740984700231800BD460FB090BD345A0300B9
S214013750A9CF0100685A0300540300200D46030058
S21401376035400100705A0300E059030080B584B06B
S21401377000AFF860B9607A60044B1800044B9847B4
S21401378000231800BD4604B080BDC046745A03002D
S214013790A9CF010080B58CB000AFF860B9607A603F
S2140137A0094B9847020009491023FB181800084BDB
S2140137B098471023FB181800064B9847002318005B
S2140137C0BD460CB080BDC0469DB701007C5A0300C3
S2140137D071460300A9CF010080B592B000AFF86032
S2140137E0B9607A604423FB1818000B4B98474423B2
S2140137F0FB185B881A0009491023FB181800084BB0
S21401380098471023FB181800064B9847002318000A
S214013810BD4612B080BDC046B14C0100845A0300BB
S21401382071460300A9CF0100B0B588B002AFF860B9
S214013830B9607A602E4B984703007B611323FA1810
S2140138407B69110018002B4B98471323FB181B7834
S214013850002B41D0284B062200211800274B984701
S214013860254A7B6911001800254B9847224B0022F8
S2140138709B5E1800234B9847021C234B1A601E4B75
S21401388002229B5E18001F4B9847021C1E4B5A6073
S214013890194B04229B5E18001A4B9847021C1A4BC0
S2140138A09A60194B1A68194B101C98470500164B5D
S2140138B05A68164B101C98470400134B9A68134B12
S2140138C0101C98470300124AB968F86801930094DF
S2140138D02B00104CA04705E00F4AB968FB6818009A
S2140138E00C4B984700231800BD4606B0B0BDC04635
S2140138F0694601003D4401003C040020B343030037
S21401390079440100C94201004404002059290300FA
S214013910945A03000D460300B85A030080B584B0DC
S21401392000AFF860B9607A60054B1800054B984700
S214013930054B9847C0461800BD4604B080BDC0463A
S214013940CC5A0300A9CF01008930010080B584B0AC
S21401395000AFF860B9607A60054B1800054B9847D0
S214013960054B9847C0461800BD4604B080BDC0460A
S214013970E05A0300A9CF0100B94B010090B587B00A
S21401398000AFF860B9607A60144B1800144B984782
S214013990144B1800124B9847134B9847134B1800BB
S2140139A00F4B98471723FC18114B984703002370B9
S2140139B01723FB181B781800094B9847094B18006A
S2140139C0074B98471423FC180A4B9847030023809B
S2140139D0C0461800BD4607B090BDC046F45A030065
S2140139E0A9CF01000C5B0300C5460100145B030070
S2140139F0E5470100DD49010080B584B000AFF860FD
S214013A00B9607A600A4B18000A4B9847FA239B0064
S214013A101800094B9847094B9847FA239B00180052
S214013A20054B9847C0461800BD4604B080BDC04649
S214013A30345B0300A9CF010025F30100294E0100E4
S214013A4080B582B000AF0200FB1D1A70064BFA1D4E
S214013A50127811001F220A40012191400A001A60C3
S214013A60C046BD4602B080BD00E100E080B584B02E
S214013A7000AF78607B681B68FB60FB68DB69072228
S214013A8013405A1E9341DBB21800BD4604B080BDF8
S214013A9080B582B000AF7860C0467B681800044BE2
S214013AA09847031EF9D1C046BD4602B080BDC04648
S214013AB06D3A010080B582B000AF78607B68642201
S214013AC01A607B681B4A5A607B6800229A607B6892
S214013AD000221A737B6800221A767B688022920382
S214013AE01A617B6801225242DA827B6801225242C5
S214013AF09A827B680022DA617B6800221A627B6800
S214013B002422002199547B6800229A627B682C2229
S214013B10002199547B682D22002199547B682E221E
S214013B20002199547B68D7221A86C046BD4602B04A
S214013B3080BDC046480D000080B584B000AF7860F7
S214013B407B681B68BB600023FB607B681800144B16
S214013B509847BB681B6802221A43BB681A607B68D9
S214013B601B6818000F4B9847030018000E4B984728
S214013B700CE0FB680133FB607B68DB881A00FB689E
S214013B809A4203D8BB6810225A8306E0BB685B8B57
S214013B909BB21A0010231340EBD0BD4604B080BD83
S214013BA0913A0100F5680200413A010080B582B001
S214013BB000AF78600A00FB1C1A707B685B7EDBB284
S214013BC05AB2FB1C1B78012199400B005BB21343D0
S214013BD05BB2DAB27B685A76C046BD4602B080BD9B
S214013BE090B591B000AF0023FB633A23FB18002287
S214013BF01A703B1D1800214B98473B1D204ADA617D
S214013C003B1D204A1A623B1DFA229200DA823B23B0
S214013C10FB1803221A701EE03A23FC183A1D1A49B3
S214013C201A4B18001A4B9847030023703A23FB18C7
S214013C301B78002B04D13A23FB181B78FB630FE09B
S214013C40124B1800134B98473B23FB181A783B235B
S214013C50FB18013A1A703B23FB181B78002BDBD1AB
S214013C60FB6B002B04D1094B18000B4B984700E067
S214013C70C046FB6B1800BD4611B090BDB53A0100B9
S214013C80020008000200090000080042F841002076
S214013C90E16C0100156E0100393B010080B584B06E
S214013CA000AF78600E4B00221A700D4B01229A600D
S214013CB00023FB600B4B1B680C22BA18110018007E
S214013CC0094B9847094B00221A70FB68002B03D05A
S214013CD0074B802252051A60C046BD4604B080BD1F
S214013CE05404002020420020799F01005004002047
S214013CF004ED00E080B584B000AF78600E4B002282
S214013D001A700D4B01229A600023FB600B4B1B6857
S214013D100C22BA1811001800094B9847094B0022CB
S214013D201A70FB68002B03D0074B802252051A60DD
S214013D30C046BD4604B080BD540400202042002089
S214013D40799F01005004002004ED00E080B584B0A6
S214013D5000AF78600E4B00221A700D4B01225A609C
S214013D600023FB600B4B1B680C22BA1811001800CD
S214013D70094B9847094B01221A70FB68002B03D0A8
S214013D80074B802252051A60C046BD4604B080BD6E
S214013D905404002020420020799F01005004002096
S214013DA004ED00E080B500AF1149124B0022180067
S214013DB0114B98470F4B00211800104B984710499C
S214013DC00C4B012218000C4B98470A4B0121180096
S214013DD00A4B98470B49074B02221800064B984797
S214013DE0044B02211800054B9847C046BD4680BDCE
S214013DF09D3C0100F841002009290100AD3B01006E
S214013E00F53C01004D3D010080B582B000AF0023B6
S214013E107B60144B984703007B607B68002B1AD1AC
S214013E20114B98470120114B98470200104B1A601E
S214013E300322002101200F4B984702000E4B1A6007
S214013E400B4B1B68002B03D00B4B1B68002B03D1BD
S214013E5006237B6000E0C0467B681800BD4602B0C2
S214013E6080BDC046E13B0100A53D0100B1980100BF
S214013E70F4410020499601002042002090B585B00B
S214013E8000AF78600023FB607B68002B03D07B6863
S214013E905B68002B03D108235B42FB601FE07B6855
S214013EA01B789AB2104B1A807B685A680E4B5A6080
S214013EB07B68DA890C4B5A800B23FC180A4A0B4B99
S214013EC0110018000A4B9847030023700B23FB18B8
S214013ED01B78002B03D006235B42FB60C046FB68C1
S214013EE01800BD4605B090BD24420020F8410020D0
S214013EF08D2B010090B585B000AF78600023FB6084
S214013F007B68002B03D07B685B68002B03D10823FA
S214013F105B42FB601FE07B681B789AB2104B1A80ED
S214013F207B689A680E4B5A607B689A890C4B5A805C
S214013F300B23FC180A4A0B4B110018000A4B984732
S214013F40030023700B23FB181B78002B03D00623DA
S214013F505B42FB60C046FB681800BD4605B090BDDD
S214013F6024420020F8410020A92A010090B583B020
S214013F7000AF00237B60094B186800230022002154
S214013F80074CA0470300012B02D014235B427B6041
S214013F907B681800BD4603B090BDC046F4410020C2
S214013FA0F198010080B584B000AF78600023FB6013
S214013FB0084B1B687A6811001800074B98470300E6
S214013FC0012B02D01D235B42FB60FB681800BD4637
S214013FD004B080BDF441002001A6010080B584B084
S214013FE000AF78600023FB60044B1A687B681A6098
S214013FF0FB681800BD4604B080BDC04620420020C4
S21401400080B500AF024B1B781800BD4680BDC04688
S2140140105004002080B582B000AF0200FB1D1A706C
S214014020034BFA1D12781A70C046BD4602B080BD19
S2140140305004002080B584B000AF7860396000235A
S214014040FB600023BB6096235B001800284B984753
S2140140500300FB60FB68002B38D10823FB1818000F
S214014060244B98470300FB60FB68002B30D17B682C
S2140140701800214B98470300FB60FB68002B2AD1F0
S214014080BB683A68110018001C4B98470300012BC7
S21401409011D11B4B9847031E11D00020194B98478E
S2140140A0FB68002B03D021235B42FB6014E0032353
S2140140B05B42FB6010E003235B42FB600CE0124BAB
S2140140C098470200FB681343FB6002E0C04600E02D
S2140140D0C046FB6807E0C0460B4B98470200FB68EA
S2140140E01343FB60FB681800BD4604B080BDC046A4
S2140140F0A53F0100DD3F01007D3E010001A6010054
S21401410001400100154001006D3F010080B586B0F9
S21401411000AFF860B9607A6000237B6100233B61E1
S21401412096235B001800364B984703007B617B693A
S214014130002B55D11023FB181800324B984703006B
S2140141407B617B69002B4DD1FB6818002E4B98478D
S21401415003007B617B69002B47D13B697A681100BC
S21401416018002A4B98470300012B18D1284B984773
S214014170031E06D00020274B984703235B427B6132
S21401418034E0BB681800244B9847FB681800234BA3
S214014190984703007B617B69002B04D026E003234C
S2140141A05B427B6122E03B697A6811001800174B7D
S2140141B098470300012B0AD1154B9847031E0AD0D6
S2140141C00020144B984703235B427B610EE00323D8
S2140141D05B427B610AE0124B984703007B6102E079
S2140141E0C04600E0C0467B6905E0C0460C4B9847D8
S2140141F003007B617B691800BD4606B080BDC046E2
S214014200A53F0100DD3F01007D3E010001A6010042
S214014210014001001540010055B30100F53E0100C3
S2140142206D3F0100B0B586B000AFF86008007A6057
S21401423019000B23FB18021C1A700823FB180A1C12
S2140142401A80FB68002B02D101235B420FE0FB685A
S2140142505C68FB68D8680823FB181D887A680B23FE
S214014260FB1819782B00A04703007B617B691800B7
S214014270BD4606B0B0BDB0B586B000AFF860080068
S2140142807A6019000B23FB18021C1A700823FB180E
S2140142900A1C1A80FB68002B02D101235B420FE047
S2140142A0FB681C68FB68D8680823FB181D887A68B9
S2140142B00B23FB1819782B00A04703007B617B6951
S2140142C01800BD4606B0B0BD80B582B000AF020092
S2140142D0BB1D1A80BB1D00229A5E074B1000984733
S2140142E0021C064B8321C905101C9847031C181C89
S2140142F0BD4602B080BDC04699290300C926030009
S21401430090B585B000AF78600A00FB1C1A700823D0
S214014310FA18786801232021114CA0470300FB609E
S214014320FB68002B17D1FB1C1B780F221340DAB257
S2140143300823FB1810011A780F210A40111C021CD1
S2140143400A431A700823FA18786801232021054CBD
S214014350A0470300FB60FB681800BD4605B090BD92
S214014360254201007742010090B585B000AF786024
S2140143700A00FB1C1A700823FA1878680123232107
S214014380124CA0470300FB60FB68002B19D1FB1CF5
S2140143901B7803221340DAB20823FB1803210A40D4
S2140143A010011A7830218A43111C021C0A431A7024
S2140143B00823FA18786801232321054CA047030037
S2140143C0FB60FB681800BD4605B090BD25420100A4
S2140143D07742010090B585B000AF78600A00FB1CFB
S2140143E01A700823FA18786801232321114CA04774
S2140143F00300FB60FB68002B17D1FB1C1B78012216
S2140144001340DAB20823FB18D0011A787F210A403C
S214014410111C021C0A431A700823FA187868012333
S2140144202321054CA0470300FB60FB681800BD462E
S21401443005B090BD254201007742010090B585B0D8
S21401444000AF786039600823FA18786801232721BD
S214014450084CA0470300FB600823FB181B781B07CA
S214014460DB0FDBB21A003B681A70FB681800BD460A
S21401447005B090BD2542010090B587B000AF7860C9
S21401448039600C23FA18786806232821264CA047A1
S21401449003007B610C23FB185B781AB23B681A8019
S2140144A03B6800229B5E9BB21B029AB20C23FB1850
S2140144B01B789BB2D3189BB21AB23B681A803B6832
S2140144C002330C22BA18D27812B21A803B68023331
S2140144D03A6802320021525E92B2120291B20C2266
S2140144E0BA18927892B28A1892B212B21A803B68BF
S2140144F004330C22BA18527912B21A803B6804337C
S2140145003A6804320021525E92B2120291B20C2233
S214014510BA18127992B28A1892B212B21A807B69CC
S2140145201800BD4607B090BD2542010090B585B084
S21401453000AF786039603A68786801231921044C25
S214014540A0470300FB60FB681800BD4605B090BDA0
S2140145502542010080B586B000AFF86008007A6099
S21401456019000B23FB18021C1A700823FB180A1CDF
S2140145701A801E4B0B22BA1812781A701623FB18D3
S21401458000221A8012E01623FB181B88013316221C
S214014590BA18128879688A181178144AD1541623E1
S2140145A0FB181A881623FB1801321A801623FA18EC
S2140145B00823FB1812881B889A42E4D30C4B192255
S2140145C01A700B4B094A5A600823FB181B880133E3
S2140145D09AB2074BDA81064B5A211800054B9847C9
S2140145E003001800BD4606B080BDC046304200201C
S2140145F0704200203540010080B584B000AFF860FD
S21401460008007A6019000B23FB18021C1A70082395
S214014610FB180A1C1A800B23FB181A780F4B1A700A
S2140146200F4B19221A700E4B7A689A600C4B0822AF
S214014630BA1812889A810A4B0B22BA185A60084B8C
S2140146400122DA81064B5A223C211800054B984775
S21401465003001800BD4604B080BDC04630420020AD
S214014660704200200D41010080B500AF014B1800DB
S214014670BD4680BD1400002080B582B000AF002387
S2140146807B600C4B012118000B4B9847094B01210D
S21401469018000A4B9847074B01211800074B98470B
S2140146A0044B00211800064B98477B681800BD464E
S2140146B002B080BD14000020D54301000143010073
S2140146C06943010080B588B000AF3D4B18003D4BF3
S2140146D098473B1D29221A701823FB1816221A70B8
S2140146E03B1D1822BA185A603B1D1722BA189A6049
S2140146F03B1D01229A813B1D0122DA8101235A4288
S214014700FA2399003B1D18002F4B9847031E04DA25
S2140147102E4B18002B4B98474EE01723FB181B789F
S214014720012B45D10023FB6128E0294AFB69D318F8
S2140147301A783B001A70FB690133254AD25C3B00AC
S2140147405A703B1D3A005A603B1D0222DA813B1D1E
S21401475000229A603B1D00229A8101235A423B1D8A
S214014760110018001B4B9847031E04DA1A4B180059
S214014770144B984720E0FB690233FB61FB694D2B24
S214014780D3D9FB1C00221A703B1DFA1C5A603B1D34
S2140147900122DA8101235A423B1D110018000D4BFC
S2140147A09847031E04DA0D4B1800064B984703E0A2
S2140147B00B4B1800034B9847BD4608B080BDC0465A
S2140147C05C5C0300A9CF01000D4101006C5C030095
S2140147D00C5C030035400100A05C0300D45C0300C0
S2140147E0085D030080B598B000AF6D4B18006D4BA7
S2140147F098475F23FB1800221A701323FB184D22DB
S2140148001A703B0029221A703B001322BA185A600C
S2140148103B005E22BA189A603B0001229A813B0057
S2140148200122DA8101235A42FA2399003B0018003B
S2140148305D4B9847031E05DA5C4B1800594B9847A9
S214014840FF23A9E05A4B1800564B98475E23FB18E6
S2140148501B781800534B9847564B1800514B9847F6
S2140148605E23FB181B781A0001231340C5D15C2375
S214014870FB18514A12881A804C23FB1829221A70F9
S2140148804C23FB185C22BA185A604C23FB180022F2
S2140148909A604C23FB1800229A814C23FB180222B3
S2140148A0DA8101235A424C23FB1811001800434BAE
S2140148B09847031E05DA424B18003A4B9847FF23E8
S2140148C06AE064203F4B98474B23FB1862221A701C
S2140148D04C23FB184B22BA185A604C23FB180122B2
S2140148E0DA814C23FB185F22BA189A604C23FB1816
S2140148F001229A8101235A42FA2399004C23FB187C
S2140149001800294B9847031E05DA2F4B1800254B34
S2140149109847FF2340E064202A4B98475F23FB1803
S2140149201B7818001F4B98474823FB18274A128804
S2140149301A804C23FB184822BA185A604C23FB18DD
S2140149400222DA814C23FB1800229A604C23FB18C2
S21401495000229A8101235A424C23FB1811001800A9
S214014960164B9847031E05DA194B18000D4B98474E
S214014970FF2311E05F23FB181B781A001549142347
S214014980FB181800144B98471423FB181800054B06
S21401499098475F23FB181B781800BD4618B080BDEA
S2140149A0385D0300A9CF01000D4101004C5D0300F5
S2140149B07C5D03009C5D0300305E03003540010012
S2140149C0A05D030025F30100CC5D0300345E030007
S2140149D0F45D0300185E03007146030080B586B0DF
S2140149E000AF1623FB1800221A801423FB182E4A48
S2140149F012881A803B1D29221A703B1D1422BA18F0
S214014A005A603B1D00229A603B1D00229A813B1D85
S214014A100222DA8101235A423B1D11001800234B62
S214014A209847031E01DA224B39E0FB1C50221A700C
S214014A303B1DFA1C5A603B1D0122DA813B1D1622E2
S214014A40BA189A603B1D02229A8101235A42FA2320
S214014A5099003B1D1800174B9847031E01DA144BAB
S214014A601DE03B00144A12881A803B1D3A005A602A
S214014A703B1D0222DA813B1D00229A603B1D00226B
S214014A809A8101235A423B1D11001800074B984793
S214014A90031E01DA064B02E01623FB181B881800DA
S214014AA0BD4606B080BDC046385E030035400100F5
S214014AB0FFFF00000D410100345E030080B584B0A5
S214014AC000AF0200FB1D1A700F23FB18FA1D1278A7
S214014AD0D2091A700E23FB18FA1D127852091A70A1
S214014AE00D4BBB600F23FB181B78002B0FD10F2338
S214014AF0FB181B789B0010229446BC446344083B79
S214014B001A680E23FB181B78DB01D31800E000237C
S214014B101800BD4604B080BD0044004180B582B097
S214014B2000AF0200FB1D1A70FB1D1B781800034B1B
S214014B30984703001800BD4602B080BDBD4A01007B
S214014B4080B582B000AF78607B6800221A707B68FF
S214014B5001225A707B6800229A70C046BD4602B098
S214014B6080BD000080B584B000AF0200FB1D1A7046
S214014B70BB1D0A1C1A70FB1D1B7818000D4B9847AD
S214014B800300FB60FB1D1B781F22134001229A4085
S214014B901300BB60BB1D1B78002B03D0FB68BA68F3
S214014BA09A6102E0FB68BA685A61C046BD4604B025
S214014BB080BDC0461D4B010080B582B000AF3B1DD5
S214014BC01800104B98473B1D01221A703B1D190017
S214014BD023200D4B9847012123200C4B9847FA239D
S214014BE0DB0018000A4B984700212320074B984703
S214014BF0FA239B001800064B984700231800BD4671
S214014C0002B080BD414B0100255C0200654B0100EE
S214014C1025F3010080B582B000AF78600A00BB1CA6
S214014C201A800D4B70221A700B4BBA1C1288DA814F
S214014C30094B7A685A60084B00229A60064B00229C
S214014C409A81054B0A211800044B98470300180067
S214014C50BD4602B080BDC0468842002035400100F6
S214014C6080B582B000AF78600A00BB1C1A800D4B7D
S214014C7070221A700B4BBA1C1288DA81094B7A68BB
S214014C805A60084B084A9A60064B06229A81054BE1
S214014C900A22D2211800054B984703001800BD468A
S214014CA002B080BD88420020804200200D410100F4
S214014CB080B582B000AF7860184B02211800184BFF
S214014CC09847184B02211800174B9847174B02219B
S214014CD01800154B9847164BDB781B021AB2144B7B
S214014CE01B791BB213431BB29AB2124B1A807B6814
S214014CF09A1C104B1B881900AF234B43002B02DA7A
S214014D000D498C4663441B149BB22D3B9BB213800A
S214014D1013881800BD4602B080BDC046240000209E
S214014D20154C01002C000020614C010028000020D9
S214014D3080420020E0410020FFFF000080B584B0E3
S214014D4000AF0200FB1D1A700F23FB18FA1D127824
S214014D50D2091A700E23FB18FA1D127852091A701E
S214014D600D4BBB600F23FB181B78002B0FD10F23B5
S214014D70FB181B789B0010229446BC446344083BF6
S214014D801A680E23FB181B78DB01D31800E00023FA
S214014D901800BD4604B080BD0044004180B582B015
S214014DA000AF0200FB1D1A70FB1D1B781800034B99
S214014DB0984703001800BD4602B080BD3D4D010076
S214014DC080B582B000AF78607B6800221A707B687D
S214014DD001225A707B6800229A70C046BD4602B016
S214014DE080BD000080B584B000AF0200FB1D1A70C4
S214014DF0FB1D1B7818000B4B98470300FB60FB1D3F
S214014E001B781F22134001229A401300BB60FB68E7
S214014E101B6ABA6813405A1E9341DBB21800BD469E
S214014E2004B080BD9D4D010080B582B000AF3B1D32
S214014E3018001A4B98473B1D00221A703B1D19009B
S214014E403620174B98473620164B984703001A0012
S214014E50154B1A70FA239B001800144B9847124BF7
S214014E601B78002B07D0124B1800124B9847642072
S214014E700E4B98470BE0104B18000E4B98476420DA
S214014E800A4B98470D4B98476420084B9847FA23DE
S214014E909B001800054B9847D5E7C046C14D010059
S214014EA0255C0200E54D01009842002025F3010033
S214014EB03C5E0300A9CF01004C5E0300E93001000F
S214014EC080B584B000AF0200FB1D1A700F23FB18DB
S214014ED0FA1D1278D2091A700E23FB18FA1D1278E1
S214014EE052091A700D4BBB600F23FB181B78002B61
S214014EF00FD10F23FB181B789B0010229446BC444D
S214014F006344083B1A680E23FB181B78DB01D31891
S214014F1000E000231800BD4604B080BD00440041F7
S214014F2080B582B000AF0200FB1D1A70FB1D1B7816
S214014F301800034B984703001800BD4602B080BD19
S214014F40C14E010080B584B000AF0200FB1D1A708F
S214014F50BB1D0A1C1A70FB1D1B7818000D4B9847C9
S214014F600300FB60FB1D1B781F22134001229A40A1
S214014F701300BB60BB1D1B78002B03D0FB68BA680F
S214014F809A6102E0FB68BA685A61C046BD4604B041
S214014F9080BDC046214F010080B584B000AF02003D
S214014FA0FB1D1A70FB1D1B781800094B9847030060
S214014FB0FB60FB1D1B781F22134001229A40130041
S214014FC0BB60FB68BA68DA61C046BD4604B080BD06
S214014FD0214F010080B500AF024B00221A70C04677
S214014FE0BD4680BD7D04002080B582B000AF0200C2
S214014FF0FB1D1A70FB1D1B785BB2DB435BB2064AD6
S214015000127852B213405BB2DAB2034B1A70C04642
S214015010BD4602B080BDC0467D04002080B582B08A
S21401502000AF0200FB1D1A70054B1A78FB1D1B789A
S2140150301343DAB2024B1A70C046BD4602B080BDB9
S2140150407D04002080B582B000AF0200FB1D1A70FF
S214015050064B1B78FA1D12781340DBB25A1E934199
S214015060DBB21800BD4602B080BDC0467D040020FC
S21401507090B585B000AF786039607B68002B02D0B0
S2140150803B68002B01D1002313E00F23FC1839687D
S2140150900A4B002218000A4B984703002370074B5F
S2140150A01800084B98470F23FB181B785A425341A8
S2140150B0DBB21800BD4605B090BDC046B006002064
S2140150C0F9CE0200F9D8020080B59EB000AFF860B4
S2140150D0B960FB1D1A707623FB1801221A8074230F
S2140150E0FB1800221A806E23FB1800221A807223F6
S2140150F0FB1800221A802423FB18180041231A00EB
S2140151000021924B98471823FB18180009231A0010
S21401511000218E4B98471423FB1800221A600023A7
S214015120BB667123FB1800221A70BB68002B01D1E5
S214015130002306E1BA68FB6811001800844B984703
S21401514003001A0001235340DBB2002B01D00123D8
S214015150F7E0BB6818007F4B98470300402B01D946
S2140151600023EEE0BB682E2118007B4B9847030016
S214015170BB66BB6E002B52D0BB6E1800754B9847B2
S21401518002006E23FB181A806E23FB181B88072B60
S21401519037D87123FB1801221A70BA6E1823FB1830
S2140151A0110018006D4B9847BB681800694B98476B
S2140151B002006E23FB181B88D31A3C2B11D97423CB
S2140151C0FB186E22BA1812883C218A1A1A80742398
S2140151D0FB181A88B9682423FB181800604B9847F7
S2140151E02AE0BA6EBB68D21A7423FB181A8074239D
S2140151F0FB181A88B9682423FB181800584B9847DF
S2140152001AE07423FB183C221A807423FB181A88B0
S214015210B9682423FB181800514B98470CE07423F7
S214015220FB183C221A807423FB181A88B9682423B9
S214015230FB1818004A4B98477423FB181B887422E6
S214015240BA18591C11801A002423FB182D219954D1
S2140152507623FB1800221A807223FB1801221A807B
S21401526010E07223FA187223FB181B88191C890098
S214015270CB18DB1813807623FB181A887623FB18C5
S21401528001321A807623FB181B88022BE9D9762374
S214015290FB1801221A804BE07623FB181A88314945
S2140152A01423FB181800304B98477423FB181B88EF
S2140152B02422BA18D3181422B91803221800284B2E
S2140152C098477123FB181B78002B0CD07423FB180E
S2140152D01B8803332422BA18D3181822BA181100CF
S2140152E018001E4B98472423FA18FB681100180073
S2140152F0174B984703001A0001235340DBB2002BDB
S2140153000FD0FB1D1A78BB68002118000F4B984779
S2140153102423FA18BB6811001800104B9847012384
S2140153200FE07623FB181A887623FB1801321A80C1
S2140153307623FA187223FB1812881B889A42ABD37D
S21401534000231800BD461EB080BDC046B34303000F
S214015350715001006B470300C54703001F47030058
S2140153609B4703009C5E03007146030090B585B021
S21401537002AF0120234B984703001A000123534034
S214015380DBB2002B05D0204B190001201F4B98479C
S21401539034E002201B4B984703001A0001235340B8
S2140153A0DBB2002B05D01A4B19000120174B98478A
S2140153B024E00420134B9847031E05D0154B190013
S2140153C00120124B984719E008200E4B9847031E00
S2140153D005D0114B190001200C4B98470EE00F4BDE
S2140153E019000120094B98470D490E4800230093E8
S2140153F0002301220C4CA04703007B60BD4603B08E
S21401540090BDC04645500100A45E030059D001007E
S214015410D05E0300FC5E0300285F0300545F0300B8
S214015420805F030014430020AD070300B0B586B0CB
S21401543000AF786039607B68002B02D03B68002B98
S21401544005D1584B19000120574B9847A6E0082074
S214015450564B984703001A0001235340DBB2002B3A
S21401546055D000237B61524B30221A70504B3A22A2
S2140154705A70504B7B6102E07B69013B7B617B6923
S2140154801B782F2BF8D17B6918004B4B98470300EC
S214015490012B24D97B6901337B617A69474B110063
S2140154A01800474B98474249464B40221800464B46
S2140154B098473F4A454B190001203B4B9847132319
S2140154C0FC183B493F4B0A221800414B9847030002
S2140154D023701323FB181B78002B12D008E03D4BDA
S2140154E019000120304B984720203B4B984755E048
S2140154F01323FB181A78394B190001202A4B9847B9
S2140155004CE0374B00221A600820334B98477B68E3
S214015510002B43D00023FB601323FC180C23FB183D
S2140155203A68796827482F4DA8470300237013234C
S214015530FB181B78002B0CD0224B18002A4B9847DF
S2140155402020254B9847294B19000120164B9847D8
S21401555024E0234B1A68FB68D218214B1A60204BB3
S2140155601A68234B1B68234901200F4CA0471C4B8C
S2140155701A681F4B1B689A4210D3124B18001A4B1D
S21401558098471D4B19000120074B9847002117200B
S2140155901A4B98471020104B9847C046BD4606B098
S2140155A0B0BDC046A05F030059D0010045500100C0
S2140155B0780000209E5F03006B4703007A000020FE
S2140155C01F470300B0060020C95001000460030015
S2140155D0F9CE0200C45F03001D5001002C600300D9
S2140155E0D806002029D40200F9D802006060030022
S2140155F0D40600209C600300D0600300454F0100E4
S21401560090B585B000AFF860B9607A60BB68042BCE
S21401561000D977E0BB689A003C4BD3181B689F46BD
S2140156203B4B190001203B4B98476BE03A4B190066
S2140156300120384B98470420384B984762E07B6836
S2140156401B881A007B685B6835490120314CA047EE
S2140156507B681B88C82B0DD17B685A68314B1A6052
S214015660314B00221A607B685A6880239B009A425D
S21401567043D803E02020294B984743E07B689A688B
S2140156807B685B6819001000284B98471020234B55
S214015690984732E07B685A687B681B6819001000DF
S2140156A0224B98477B681B7A002B28D010201B4B77
S2140156B0984724E07B681A681D4B19000120154B9A
S2140156C098477B681B680B331BD10820194B9847FA
S2140156D0031E06D0184B1800184B98470820184B85
S2140156E098470420134B9847031E02D00420144BFE
S2140156F09847144B9847C04603E0C04602E0C046B0
S21401570000E0C046BD4605B090BDC0461068030027
S2140157100461030059D001003C6103001D500100E3
S21401572068610300D4060020D80600202D5401002D
S214015730A461030045500100B0060020F9D802001C
S214015740E94F01006D53010080B582B000AF3A60A9
S214015750FB1D021C1A70BB1D0A1C1A703A68BB1D81
S2140157601978FB1D1B785BB21800034B9847C0469F
S214015770BD4602B080BDC046BD040300B0B586B0CC
S21401578004AF786039603B68FF2213401C003B6819
S2140157901B0A1A00FF2313403A68120C1100FF225D
S2140157A00A403968090E0D00786809490295019288
S2140157B00093230002000120064CA0473A687B684C
S2140157C011001800044B9847C046BD4602B0B0BD54
S2140157D0D461030059D001002106030090B587B0BB
S2140157E002AF02003960FB1D1A70FB1D1B782C2BC3
S2140157F002D0322B3DD06FE03B68FB60FB681B7824
S214015800012B07D1364B19000120364B9847364BF2
S21401581098475EE0FB681B78002B5AD1334B190082
S2140158200120304B98470220314B98470820314BD6
S2140158309847031E06D0304B1800304B9847082077
S2140158402B4B984704202B4B9847031E02D004206D
S214015850274B98472A4B012118002A4B98472A4A7A
S2140158602A48FF230093130002220A21284CA0474E
S2140158702FE03B68BB60BB681B781800BB68013330
S2140158801B781C00BB6802331B781A00BB68033305
S2140158901B78204901930092230002000120114C3D
S2140158A0A04702201C4B98471C4B1B78012B02D1AA
S2140158B01B4B98470FE01B4A114B110018001A4B5F
S2140158C09847031E07D0194B19000120054B98472E
S2140158D001E0C04600E0C046C046BD4605B090BDEA
S2140158E00462030059D001009D16020024620300E1
S2140158F0E94F010045500100B0060020F9D802002A
S214015900DC06002069F10200486203005C620300C5
S214015910C9110200686203001D5001007C040020CA
S2140159206D5301008C5E030035F0020090620300A7
S21401593090B583B000AF294B9847294B1900012039
S214015940284B9847FC1D0020274B984703002370DF
S214015950FB1D1B78012B10D1244B19000120214B74
S2140159609847234B190001201E4B9847C04600203C
S214015970204B98470300022BF9D1FB1D1B78002B07
S214015980E0D11D4B19000120164B98478C239A0035
S2140159901A4B002118001A4B9847BC1D174B1900CB
S2140159A00020184B984703002370BB1D1B780B2B58
S2140159B007D1BB1D1A78144B19000120094B9847D3
S2140159C008E0124B19000120064B98470120104BA6
S2140159D09847C046BD4603B090BDC04671DE010083
S2140159E0B462030059D001004DE30100EC620300EC
S2140159F014630300C1DE0100486303008004002035
S214015A00B3430300A1CE02006C6303009C63030052
S214015A101D50010080B582B000AF3B1D1800084B39
S214015A2098473A1D074B11001800074B9847054B3E
S214015A301800064B9847C046BD4602B080BDC0461A
S214015A40511C0300BC420020751C0300611D0300AD
S214015A5080B588B000AF3B001800154B98473B0057
S214015A60802292001A613B00124A5A603B00502283
S214015A701A803B0000229A703A000F4B1100180062
S214015A800E4B98470300FB61FB69002B06DAFA69A7
S214015A900B4B190001200B4B9847FEE70A4A064BB1
S214015AA011001800094B9847C046BD4608B080BD96
S214015AB0E5020300BC42002014430020310303002A
S214015AC0C063030059D00100015601001D04030004
S214015AD080B582B000AF3A60FB1D021C1A70BB1D78
S214015AE00A1C1A703A68BB1D1978FB1D1B785BB23D
S214015AF01800034B9847C046BD4602B080BDC0465D
S214015B00DDEF020080B582B000AF786039603A6898
S214015B107B6811001800034B9847C046BD4602B08B
S214015B2080BDC04611F0020080B582B000AF78603B
S214015B301720064B9847064B9847064B1800064B0E
S214015B409847C046BD4602B080BDC046994F010089
S214015B50B94B010008640300A9CF010080B582B0EB
S214015B6000AF7860034B1800034B9847C046BD460C
S214015B7002B080BD30640300A9CF010090B58BB0A0
S214015B8000AF78600C23FB181422FF211800414B4C
S214015B9098477B681B689B683F49092218003F4B62
S214015BA09847031E59D13E4B190001203D4B98479B
S214015BB07B685B685A687B685B689B683A4901202A
S214015BC0384CA0477B681B68DA687B681B689B6853
S214015BD036490120334CA04700237B627B681B6853
S214015BE09B680933BB6015E07C6A631C7B62BB68FB
S214015BF00822B9180A2218002D4B98470300DAB27A
S214015C000C23FB181A55BB681B782C2B0AD1BB68D2
S214015C100133BB607B6A132B05DCBB681B78002B4A
S214015C20E2D100E0C046234B190001201D4B9847E6
S214015C3000233B620DE00C23FA183B6AD3181B784D
S214015C401A001D4B19000120164B98473B6A013379
S214015C503B623B6A132BEEDD18E0184B190001205E
S214015C60104B98477B685B685A687B685B689B68E3
S214015C700D4901200B4CA0477B681B68DA687B68DE
S214015C801B689B6809490120064CA047C046BD46D3
S214015C900BB090BDB343030038640300794703009B
S214015CA04464030059D00100606403006864030083
S214015CB025490300706403008464030088640300BC
S214015CC090B583B000AF7860094B19000120094BED
S214015CD098477B685B685A687B685B689B6806497F
S214015CE00120044CA047C046BD4603B090BDC04647
S214015CF0B864030059D001006064030090B58BB00E
S214015D0006AFF860B9607A60BB68012B3BD0052B03
S214015D1064D0002B00D067E07B681B68002B25DB76
S214015D20334B19000120334B98473349324AF86800
S214015D300023059300230493002303930023029377
S214015D40002301932C4B00930B0001212B4CA04701
S214015D50031E05D02A4B19000120264B984743E025
S214015D60284B19000120234B98473DE0264A274B34
S214015D70190001201F4B9847234AFB6811001800A1
S214015D80234B984730E07B681B78002B1DD1214BB5
S214015D902149F8680222214CA047214B2149F86885
S214015DA002221E4CA047204B2049F86802221B4CB9
S214015DB0A0471F4B1F49F8680222184CA0471E4BEC
S214015DC0190001200B4B98470EE07B681B781A00E0
S214015DD01A4B19000120074B984705E0184B19008C
S214015DE00120044B9847C046C046BD4605B090BD4D
S214015DF01C65030059D00100386503007DF00200E0
S214015E00446503006C6503008C5E0300886503002F
S214015E1035F002007D5B0100C06503001DF2020043
S214015E20295B0100F86403005D5B0100D465030093
S214015E30C15C0100EC650300006603001466030004
S214015E404866030080B588B000AF3B1D18001F4BA5
S214015E5098473B1D1E4A9A603B1D80229200DA60DD
S214015E603B1D1C4A1A613B1D802292005A613B1D54
S214015E70194A1A803B1D194A9A803A1D184B11007F
S214015E801800184B98470300FB61FB69002B06DAE4
S214015E90FA69154B19000120144B9847FEE7144A7E
S214015EA00F4B11001800134B98470300FB61FB6969
S214015EB0002B06DAFA69104B190001200B4B9847A4
S214015EC0FEE7C046BD4608B080BDC04675EF02007D
S214015ED014070020140900205B070000701700005B
S214015EE0DC060020C5EE02005C66030059D0010006
S214015EF0FD5C0100B5EF02009066030080B584B03A
S214015F0000AF3B1D18000B4B98473B1D37221A600C
S214015F103B1D00225A603B1D01221A723B1D0222C4
S214015F20DA723B1D19000720034B9847C046BD4651
S214015F3004B080BDCD5A0200015B020080B500AFFF
S214015F40064B002207211800054B98470021072021
S214015F50044B9847C046BD4680BDC046695F0100F8
S214015F60CD5602003157020080B500AF024B012228
S214015F701A70C046BD4680BD140B002080B500AF28
S214015F80154A164B11001800154B9847031E08D0EA
S214015F90144B19000120144B984702E00020134BC4
S214015FA098470E4B34229B5C002BF7D1104B984739
S214015FB0104B01221A70104A104B11001800104B9A
S214015FC09847104B9847104B9847104B03221A706E
S214015FD0C046BD4680BDC0468C5E0300DC06002080
S214015FE069F102009062030059D00100AD11020070
S214015FF0694702007C0400207D57010049570100D3
S214016000B1470200194702006D53010068040020E1
S21401601090B585B000AF09E000202A4B98472A4B7F
S21401602018002A4B98470520294B98471020294BE2
S214016030984703001A0001235340DBB2002B09D016
S2140160402020244B984703001A0001235340DBB25B
S214016050002BE1D1204B9847FA239B0018001C4BDC
S21401606098471E4B00221A703B001D4A13CA13C3E1
S2140160703B0030221A700F23FC183900194B0A22F4
S2140160801800194B9847030023700F23FB181B7841
S214016090002B08D00F23FB181A78144B1900002088
S2140160A0134B984703E0134B1800134B98470D4BBF
S2140160B01800124B9847124B00221A70C046BD4674
S2140160C005B090BDAD110200BC420020911E030038
S2140160D055B3010045500100694702007C040020C9
S2140160E0E8660300B0060020F9CE0200C46603008D
S2140160F059D00100D4660300A9CF0100F9D80200E7
S2140161006804002080B500AF184B9847184B984795
S214016110184A194B11001800184B9847184B984706
S214016120184B34229B5C01225340DBB2002B0CD06F
S214016130154A144B11001800144B9847031E04D03F
S214016140134B19000120134B98470E4B34229B5CCE
S214016150002B04D0104B190001200E4B98470F4B13
S21401616001221A70C046BD4680BDC046694702007E
S214016170455E0100055B0100D15A0100B1470200EE
S21401618019470200DC0600208C5E030035F0020091
S2140161909062030059D00100F466030068040020F1
S2140161A080B500AF00200B4B98470B4B18000B4BEC
S2140161B098470B4B98470B4B98470B4B34229B5CED
S2140161C0002B04D0084B64211800084B9847C046A2
S2140161D0BD4680BDAD110200BC420020911E0300E9
S2140161E07D620100F1610100DC06002065F202001B
S2140161F090B585B002AF184B1B6839000022180015
S214016200164B98470300012B21D13B0000229B5ED1
S2140162101C003B0002229B5E19003B0004229B5E91
S2140162200F4A10480193009123003F210E4CA047CE
S2140162300C4B18000D4B984704000A4A0C490D48B0
S214016240002301930123009323000B4CA047C04673
S214016250BD4603B090BDC04674040020A9A101004C
S21401626010670300300000200D4603006B47030053
S214016270EC650300DC060020B1F1020090B58BB09E
S21401628002AF394B1B680822B91800221800374B99
S21401629098470300012B63D1354B364A03CA03C323
S2140162A012881A800023FB612DE00823FA18FB6987
S2140162B0D3181B78FF2B2AD00823FA18FB69D318AA
S2140162C01B782D4A380003212C4CA0473A00284B56
S2140162D0110018002A4B9847FB6901330822BA18A7
S2140162E0D35CFF2B0CD0FB690133132B08DC3B007E
S2140162F02C221A803A001E4B11001800204B98479A
S214016300FB690133FB61FB69132BCEDD00E0C04660
S214016310174B18001B4B984703001A00144BD21852
S214016320194B1000190003231A00184B9847104BFD
S21401633019000120164B9847164B19000120144BE3
S21401634098470B4B18000F4B98470400084A124910
S214016350124800230193012300932300104CA04709
S214016360C046BD4609B090BD70040020A9A1010039
S2140163703000002038640300346703000D46030034
S214016380F14603006B470300386703007D430300B3
S21401639059D001003C67030040670300DC0600207B
S2140163A0B1F1020090B58DB002AF786064209E4BCB
S2140163B098479E4B98470022042105209C4B9847FE
S2140163C002009C4B1A60002206210520984B984734
S2140163D00200994B1A60002214210220944B984720
S2140163E00200964B1A60002202210520904B984726
S2140163F00200934B1A608F4B1B68002B0BD08E4B01
S2140164001B68002B07D08D4B1B68002B03D08C4BD1
S2140164101B68002B03D18B4B18008B4B98478B4B7B
S2140164201800894B98478A4B98478A4B98478A4B5E
S21401643098478A4B98478A4B98478A4B98470C232C
S214016440FB18182200211800874B9847874B98475E
S2140164500C23FB18864A1A602723FC180C23FB180A
S2140164601800844B9847030023702723FB181B78DA
S2140164705BB2002B09D02723FB1800229A567E4BCD
S214016480190001207D4B9847FEE77D4A7D4B190098
S21401649001207A4B98477C4B98477C4A7C4B1100ED
S2140164A018007C4B98477C4A7548FF2300931300DD
S2140164B002220A21794CA04706E00020784B984733
S2140164C0784B1800784B98470220784B9847030082
S2140164D01A0001235340DBB2002BEED1FA239B00B6
S2140164E01800514B9847724B01221A70704B1B785B
S2140164F05BB2012B0BD002DC002B05D010E0022B87
S21401650008D0032B09D00BE06A4B98470CE06A4B86
S214016510984709E0694B984706E0694B984703E0BE
S214016520634B00221A70C0460B23FB1800221A7018
S214016530404B1B680B22B91800221800614B984784
S2140165400300012B05D10B23FB181B785AB2584BBD
S2140165501A705D4B1B78DBB2002B60D05B4B1B784F
S214016560002B2ED05A4B01221A60594B1B681C0077
S214016570574B1B681800574B984702005649574817
S214016580002301930223009313002200544CA047DA
S2140165904F4B1A68534B19000120384B98474A4B0A
S2140165A000221A70494B1B785A1E9341DBB2012216
S2140165B05340DBB21A1C01231340DAB2434B1A7064
S2140165C02DE0434B00221A60414B1B681C00404BD8
S2140165D01B6818003F4B984702003F493F4800237D
S2140165E0019302230093130022003D4CA047384B31
S2140165F01A683C4B19000120204B9847324B002269
S2140166001A70324B1B785A1E9341DBB2012253405B
S214016610DBB21A1C01231340DAB22C4B1A70642029
S214016620014B984762E7C04655B30100D54F0100BC
S214016630499601006C0400207404002070040020B8
S2140166407804002054670300A9CF01007C6703008B
S214016650155A0100515A0100455E010031590100E9
S214016660FD5E01003D5F0100B3430300E1F401005C
S214016670DD570100B90F02009867030059D00100E9
S2140166805C620300C467030019470200055B010052
S214016690D15A0100B147020048620300C911020045
S2140166A0AD110200BC420020911E030045500100BE
S2140166B06804002005610100A16101007D5F010001
S2140166C011600100A9A10100140B00207400002034
S2140166D0700000206B470300E8670300DC0600201B
S2140166E0B1F102000068030090B583B000AF02006C
S2140166F0FB1D1A70FB1D1B78032B06D8054B18686B
S214016700F91D00230A22044CA047C046BD4603B02B
S21401671090BDC0466C040020F198010080B582B09F
S21401672000AF78607B6800221A70C046BD4602B092
S21401673080BD000080B582B000AF02003960FB1D4D
S2140167401A70FB1D1B78012B0AD0022B0FD0002BD1
S21401675014D10E4B0D4A91693A680A439A610FE0CB
S2140167600A4B0A4AD1693A680A43DA6108E0074BDC
S214016770064A116A3A680A431A6201E0172300E0E2
S21401678000231800BD4602B080BDC046000400408C
S21401679080B582B000AF78607B6880221A707B6813
S2140167A000225A707B6801229A707B680022DA7098
S2140167B0C046BD4602B080BD80B500AF054B9B7894
S2140167C0DBB21A00022313405A1E9341DBB21800B3
S2140167D0BD4680BD0020004180B500AF024B984702
S2140167E0C046BD4680BDC0461154020080B500AF0C
S2140167F0024B9847C046BD4680BDC0466554020060
S21401680080B582B000AF0200FB1D1A70074AFB1D5F
S2140168101B7819001F230B40012199400B0019001A
S2140168208023D150C046BD4602B080BD00E100E0E5
S21401683080B584B000AF78607B681B68FB60FB683E
S214016840DB69072213405A1E9341DBB21800BD468E
S21401685004B080BD80B582B000AF7860C0467B686A
S2140168601800044B9847031EF9D1C046BD4602B036
S21401687080BDC0463168010080B584B000AF786045
S2140168807B681B68FB607B681B6818000D4B98478C
S214016890030018000C4B98477B6818000B4B984771
S2140168A0FB6883221A75FB6883221A76FB681B68CD
S2140168B0022293431A00FB681A60C046BD4604B024
S2140168C080BDC046F56802000168010055680100F8
S2140168D0F0B597B000AF786139610023FB63002300
S2140168E03B650023FB643B2310229446BC4463446F
S2140168F000221A707B691B68BB637B691B687B631C
S21401690023231022BA18D4187B6B1800C04B984763
S214016910030023700C2310229446BC4463441800E1
S214016920BC4B98473B69DB697B643B691B6A3B64EC
S2140169307B6C002B06D17B6B00211800B64B984769
S21401694003007B647B6CDAB20C2310218C46BC44BA
S21401695063441A700C2310229446BC4463440222FA
S2140169605A707B6C1B0CDBB20C2210218C46BC448B
S214016970624411001800A94B98473B6C002B06D1C6
S2140169807B6B01211800A44B984703003B643B6CCA
S214016990DAB20C2310218C46BC4463441A700C23D3
S2140169A010229446BC44634402225A703B6C1B0C72
S2140169B0DBB20C2210218C46BC4462441100180044
S2140169C0964B98473B699A8A7B69DA803B69DA8AF3
S2140169D07B691A813B691B7E002B03D1904B98473C
S2140169E0031E02D080237B6501E000237B653B69A3
S2140169F01B69002B04D03B691B697A6D13437B65C9
S214016A003B699B687A6D13437B653B6924229B5CDB
S214016A10002B04D07B6D8022D20513437B653B6936
S214016A209B6A002B04D03B699B6A7A6D13437B6596
S214016A303B692C229B5C002B05D13B699A6880231D
S214016A409B049A4204D17B6D8022120513437B6519
S214016A503B692D229B5C002B04D07B6D80221204A7
S214016A6013437B653B692E229B5C002B04D07B6D18
S214016A708022D20313437B65BB6B1A687B6D1A4376
S214016A80BB6B1A60BB6B802252005A602323102214
S214016A909446BC4463441B781433DBB21800614B44
S214016AA098470300FB623B691B68FA229200534336
S214016AB0BB623B695B68FA22920053437B623B6987
S214016AC01B8E3B62584BF86A984705000E00564BE2
S214016AD0B86A9847B860F960534BF86A9847534CC0
S214016AE0534A544BA04703000C003B607C604E4B5E
S214016AF0386A984702000B004C4C38687968A04702
S214016B0003000C00180021004B4C00224B4BA04701
S214016B1003000C001A002300444CB868F968A0472B
S214016B2003000C001A002300454C28003100A04742
S214016B3003000C001D002600BB6A5A003A4B1000E9
S214016B40984702000B003C4C28003100A047030088
S214016B500C00180021003A4C00223A4BA0470300D3
S214016B600C001D002600BB6A5A002F4B10009847E8
S214016B7002000B00344C28003100A04703000C0033
S214016B8019002200314B0800110098470300FB63EF
S214016B903B699A6880239B049A426AD1224BF86A21
S214016BA09847254C02000B00A04703000C001D006F
S214016BB026001D4B786A98471C4C0022244BA047A0
S214016BC003000C001A0023001F4C28003100A047C8
S214016BD003000C0018002100194C0022194BA04795
S214016BE003000C0019002200184B080011009847FA
S214016BF00300FB64FB6C002B2ED0164B796AF86AF7
S214016C00984703009A1EFB6CD31A3B6531E0C046D9
S214016C10256802009167010069660200159402006A
S214016C20B9670100D991020055420300C13603003D
S214016C3095D626E80B2E113E392A03000000244083
S214016C40C13B03000000F03F59300300ED41030053
S214016C5000000840892303007B6A5A00FB6AD318A8
S214016C605A1E7B6A59001D4B100098470300013BD2
S214016C703B65FB6BFF2B08DCFB6B002B05DB3B6DE1
S214016C80FF2B02DC3B6D002B06DA3B2310229446D9
S214016C90BC44634440221A703B2310229446BC44F1
S214016CA063441B78402B0ED0FB6BFF221A403B6DD2
S214016CB01B041900FF231B040B401343FA6C120636
S214016CC01A43BB6BDA603B2310229446BC446344F0
S214016CD01B781800BD4617B0F0BDC04689230300D7
S214016CE090B58BB000AFF860B9607A60FB68BA689F
S214016CF01A60FB681B687B62FB681B6818003B4BCD
S214016D00984703003B623B6A0233FB613B6A1433DC
S214016D10BB610122FB699A40130019000220344B23
S214016D2098471423FB181800324B98477B681A7B48
S214016D301423FB181A70BB69DBB21422BA181100AF
S214016D4018002D4B9847BB69DBB218002B4B9847B0
S214016D507B681B7B00211800294B98477B6A1B68C0
S214016D600222134001D01C233BE07B6A1B680122F0
S214016D70134001D0052334E0FB681B681722BC18BA
S214016D8018001A4B9847030023701E4A1723FB1856
S214016D901B78110018001C4B98471723FB181A780C
S214016DA01A4B9200F968D150FB6800221A76FB68EC
S214016DB000225A76FB6800225A83FB6800229A83D7
S214016DC0FB68252200219954FB6800221A627B6A1F
S214016DD014221A607A68FB68110018000C4B984759
S214016DE003001800BD460BB090BDC04625680200E2
S214016DF0356701001D670100B5900200F990020099
S214016E00DD650200CD2B01008968020014560020C2
S214016E10D168010080B584B000AF78607B681B68DC
S214016E20FB607B6818000F4B98477B6818000E4B79
S214016E3098470E4B98477B681B6818000C4B984781
S214016E40030018000B4B98470B4B98477B681800BC
S214016E50044B9847FB6801221A60C046BD4604B041
S214016E6080BDC0465568010079680100D9670100F8
S214016E70F568020031920200ED67010080B584B02A
S214016E8000AF78607B681B68FB60FB681B7EDBB22B
S214016E901A00022313400BD0FB6802221A76FB6805
S214016EA05B8B9BB21A000223134011D0412310E0E2
S214016EB0FB685B8B9BB21A000423134008D0FB6867
S214016EC05B68C02292021A43FB685A60182300E0EE
S214016ED000231800BD4604B080BD80B584B000AF65
S214016EE078607B681B68BB600E23FB1800221A8043
S214016EF00FE00E23FB180E22BA18128801321A80F0
S214016F007B681B890E22BA1812889A4201D3122373
S214016F100EE0BB681B7EDBB21A000123134006D1CC
S214016F20BB681B7EDBB21A0002231340E1D00023AC
S214016F301800BD4604B080BD90B585B000AF78603E
S214016F400A00FB1C1A707B681B68FB60FB685B68A9
S214016F508022D2021A43FB685A60FB1C1A78FB682F
S214016F605A620B23FC187B681800074B98470300EE
S214016F702370FB6801221A760B23FB181B78180076
S214016F80BD4605B090BDC046DB6E010080B500AFC2
S214016F900020024B9847C046BD4680BDC96F010020
S214016FA080B500AF0120024B9847C046BD4680BD64
S214016FB0C96F010080B500AF0220024B9847C0465A
S214016FC0BD4680BDC96F010080B584B000AF020028
S214016FD0FB1D1A70FB1D1A78284B9200D358FB60D4
S214016FE0FB681B689B7BDBB2FA68127E1340DAB241
S214016FF0FB68597E0B23FB180A401A700B23FB18FB
S2140170001B780122134008D0FB689B68FA681000C1
S2140170109847FB681B6801229A730B23FB181B78A1
S2140170200222134008D0FB68DB68FA681000984714
S214017030FB681B6802229A730B23FB181B7810222D
S214017040134008D0FB681B69FA6810009847FB6874
S2140170501B6810229A730B23FB181B7820221340FF
S21401706008D0FB685B69FA6810009847FB681B68E4
S21401707020229A73C046BD4604B080BDFC43002062
S21401708080B584B000AF78600023FB607B68002B7E
S21401709001D172B6FEE70820114B98470300BB608A
S2140170A0BB68002B01D172B6FEE7BB68002B12D07D
S2140170B00C4B9847BB687A681A60BB6800225A6016
S2140170C0094B1B68BA685A60074BBA681A60074BC7
S2140170D098470123FB60FB681800BD4604B080BDDD
S2140170E09194010059930100C40000207D93010092
S2140170F080B588B000AFF860B9607A600123FB61A3
S2140171003D4B1B68002B44D13B4B3C4A1A603AE08E
S214017110394B1B681B681B68BB61BB691800384B81
S214017120984703007B61FA687B69D3181B78202B8C
S21401713005D0FA687B69D3181B78002B1ED17A69B3
S214017140B969FB6818002F4B9847031E16D12A4BC6
S2140171501B681B681B7B5BB2002B19DBFB681800E6
S214017160294B984703001A00234B1B681B681B7B9F
S2140171705BB29A420CD00023FB6109E01E4B1B68F0
S2140171805A681D4B1A601C4B1B68002BC0D100E0CF
S214017190C046194B1B68002B0CD0FB69002B09D18C
S2140171A07A681A49BB681800194B9847124B002297
S2140171B01A601CE0104B1B68002B10D00E4B1B688E
S2140171C01B689B68FA687968B86898470300FB6192
S2140171D0FB69002B0BD1084B00221A6007E07A6886
S2140171E00C49BB6818000A4B98470023FB61FB69F2
S2140171F01800BD4608B080BD180B0020BC0000205A
S2140172006B47030079470300797201005C6803004D
S2140172109B470300B468030080B586B000AFF860F2
S214017220B9607A60114B1B68002B02D10F4B104AD4
S2140172301A600E4B1B681B685968BA68FB68180011
S2140172400C4B9847094B1B685A68084B1A60074B4A
S2140172501B68002B02D100237B6101E001237B61C7
S2140172607B691800BD4606B080BDC0461C0B0020D9
S214017270BC0000209B47030080B584B000AF786057
S2140172800F23FB1800221A700023BB6018E07B68EE
S2140172901B78202B0FD1BB68012B0ED00F23FB18B8
S2140172A01B785BB2DBB20133DAB20F23FB181A701C
S2140172B00123BB6001E00023BB607B6801337B6078
S2140172C07B681B78002BE2D1BB68012B09D10F2309
S2140172D0FB181B785BB2DBB2013BDAB20F23FB185B
S2140172E01A700F23FB181B785BB21800BD4604B05A
S2140172F080BD000080B582B000AF78607B68180062
S214017300034B984703001800BD4602B080BDC04637
S214017310B9AA010080B582B000AF78607B6818001A
S214017320034B984703001800BD4602B080BDC04617
S214017330E5AA010080B582B000AF78607B681800CE
S214017340034B984703009BB21800BD4602B080BDB0
S21401735015BE010080B582B000AF78607B6818006A
S214017360044B984703001B0C9BB21800BD4602B0A5
S21401737080BDC04615BE010080B582B000AF786002
S2140173800A00BB1C1A807B681800084B984703004C
S2140173901B0C1A04BB1C1B881A437B6811001800BF
S2140173A0034B9847C046BD4602B080BD15BE0100DE
S2140173B03DBE010080B582B000AF78600A00BB1CFC
S2140173C01A807B681800094B984703001B041A0CA7
S2140173D0BB1C1B881B041A437B6811001800044B56
S2140173E09847C046BD4602B080BDC04615BE0100E6
S2140173F03DBE010080B582B000AF78607B681800A2
S214017400034B984703009BB21800BD4602B080BDEF
S214017410F572010080B582B000AF78607B68180015
S214017420044B984703001B0C9BB21800BD4602B0E4
S21401743080BDC046F572010080B582B000AF7860AD
S2140174400A00BB1C1A807B681800084B984703008B
S2140174501B0C1A04BB1C1B881A437B6811001800FE
S214017460034B9847C046BD4602B080BDF572010089
S214017470CDAA010080B582B000AF78600A00BB1CBF
S2140174801A807B681800094B984703001B041A0CE6
S214017490BB1C1B881B041A437B6811001800044B95
S2140174A09847C046BD4602B080BDC046F572010091
S2140174B0CDAA010080B584B000AF78600023FB60E0
S2140174C00023BB6018E0144BBA68D200D358002BD7
S2140174D00FD1114BBA68D2007968D1500E4ABB68F9
S2140174E0DB00D3180433012252421A600123FB60E9
S2140174F005E0BB680133BB60BB68092BE3DDFB68B5
S214017500002B04D1054B1B685A1C044B1A60C0465D
S214017510BD4604B080BDC046240B0020740B00207D
S21401752090B585B000AF0023FB602B4B1B68BB609A
S214017530294B1A68294BD200D358002B35D0264B3D
S2140175401A68264BD200D3581800254B98470300DB
S2140175507B60214B1B68214ADB00D31804331A6871
S2140175607B689A4207D91C4B1B681C4ADB00D31860
S21401757004337A681A60184B1A68184BD200D3582D
S2140175801800184B98470300DBB21900124B1B6812
S214017590124ADB00D31804331B680A000321EA20D1
S2140175A0114CA047FB680133FB600B4B1B685A1C50
S2140175B00E4B0A21100098470B001A00064B1A6062
S2140175C0FB68002B04DC044B1A68BB689A42AFD1F7
S2140175D0C046BD4605B090BD780B0020240B0020A8
S2140175E0B5BF0100357301007D7E010069260300E9
S2140175F080B500AF024B984703001800BD4680BD1A
S21401760061C0010090B585B002AF7860144B984711
S2140176107B68012B02D1134B98470EE07B68022B47
S21401762004D1114B1800114B984706E07B68002BDC
S21401763003D00F4B18000D4B98470E4B1B68002BC1
S21401764009D10D490D480B4B0193042300930023E8
S214017650C8220B4CA047C046BD4603B090BDC046ED
S21401766049850100A17A010014690300F18B01002C
S21401767054690300200B0020886903008576010009
S214017680B9AF010080B582B000AF7860044B98476F
S214017690031E01D0034B98470420034B9847F5E798
S2140176A0E57A01002175010055B3010080B500AFF0
S2140176B0604B1B680922DA655E4B1B6864220A214F
S2140176C099545C4B1B6865220A219954594B1B68D7
S2140176D066220A219954574B1B6867220F21995439
S2140176E0544B1B68682205219954524B1B6869222A
S2140176F0052199544F4B1B686A22052199544D4B1D
S2140177001B686B22052199544A4B1B686C22052184
S2140177109954484B1B6870220F219954454B1B689E
S21401772071220F219954434B1B6872220F219954E1
S214017730404B1B6873220F2199543E4B1B687422E1
S2140177400F2199543B4B1B6875220F219954394BD5
S2140177501B6876220F219954364B1B6877220F211E
S2140177609954344B1B6878220F219954314B1B686E
S2140177707C22102199542F4B1B687D22102199548D
S2140177802C4B1B687E22102199542A4B1B687F22A2
S21401779013219954274B1B68802211219954254B9C
S2140177A01B68812210219954224B1B6882221321C7
S2140177B09954204B1B688322132199541D4B1B6837
S2140177C08422132199541B4B1B688822002199524D
S2140177D0184B1B688A22A0219952164B1B688C22D3
S2140177E0A02149009952134B1B688E22F0214900B3
S2140177F09952104B1B6890220F4999520D4B1B68EA
S21401780092220E4999520B4B1B6894220C499952AD
S214017810084B1B6896220B499952064B1B68982207
S2140178208C21C9009952034B1B68074A1A66C04649
S214017830BD4680BD380C0020FD020000520300004A
S214017840A203000001040000BF04000080B500AFE1
S2140178502E4B00225A822D4B5A8A2C4B1A802B4BC8
S2140178600A229A82294B9A8A284B5A80274B14223D
S214017870DA82264BDA8A254B9A80244B1E221A83FB
S214017880224B1A8B214BDA80204B2D225A831F4B19
S2140178905A8B1E4B1A811D4B32229A831B4B9A8B95
S2140178A01A4B5A81194B3722DA83184BDA8B174B4E
S2140178B09A81164B3C221A84144B1A8C134BDA818C
S2140178C0124B41225A84114B5A8C104B1A820F4B81
